{
  "_format": "hh-sol-artifact-1",
  "contractName": "DEX",
  "sourceName": "contracts/DEX.sol",
  "abi": [
    {
      "inputs": [
        {
          "internalType": "address",
          "name": "_tokenAddress",
          "type": "address"
        }
      ],
      "stateMutability": "nonpayable",
      "type": "constructor"
    },
    {
      "inputs": [
        {
          "internalType": "uint256",
          "name": "_tokenAmount",
          "type": "uint256"
        }
      ],
      "name": "deposit",
      "outputs": [],
      "stateMutability": "payable",
      "type": "function"
    },
    {
      "inputs": [],
      "name": "ethToTokenSwap",
      "outputs": [],
      "stateMutability": "payable",
      "type": "function"
    },
    {
      "inputs": [
        {
          "internalType": "address",
          "name": "",
          "type": "address"
        }
      ],
      "name": "liquidity",
      "outputs": [
        {
          "internalType": "uint256",
          "name": "",
          "type": "uint256"
        }
      ],
      "stateMutability": "view",
      "type": "function"
    },
    {
      "inputs": [],
      "name": "token",
      "outputs": [
        {
          "internalType": "contract IERC20",
          "name": "",
          "type": "address"
        }
      ],
      "stateMutability": "view",
      "type": "function"
    },
    {
      "inputs": [],
      "name": "totalLiquidity",
      "outputs": [
        {
          "internalType": "uint256",
          "name": "",
          "type": "uint256"
        }
      ],
      "stateMutability": "view",
      "type": "function"
    }
  ],
  "bytecode": "0x608060405234801561001057600080fd5b50604051610ce8380380610ce8833981810160405281019061003291906100db565b806000806101000a81548173ffffffffffffffffffffffffffffffffffffffff021916908373ffffffffffffffffffffffffffffffffffffffff16021790555050610108565b600080fd5b600073ffffffffffffffffffffffffffffffffffffffff82169050919050565b60006100a88261007d565b9050919050565b6100b88161009d565b81146100c357600080fd5b50565b6000815190506100d5816100af565b92915050565b6000602082840312156100f1576100f0610078565b5b60006100ff848285016100c6565b91505092915050565b610bd1806101176000396000f3fe60806040526004361061004a5760003560e01c806315770f921461004f578063b6b55f251461007a578063b8c876b114610096578063c1137e56146100d3578063fc0c546a146100dd575b600080fd5b34801561005b57600080fd5b50610064610108565b604051610071919061065e565b60405180910390f35b610094600480360381019061008f91906106aa565b61010e565b005b3480156100a257600080fd5b506100bd60048036038101906100b89190610735565b610464565b6040516100ca919061065e565b60405180910390f35b6100db61047c565b005b3480156100e957600080fd5b506100f2610621565b6040516100ff91906107c1565b60405180910390f35b60015481565b6000344761011c919061080b565b905060008260008054906101000a900473ffffffffffffffffffffffffffffffffffffffff1673ffffffffffffffffffffffffffffffffffffffff166370a08231306040518263ffffffff1660e01b815260040161017a919061084e565b602060405180830381865afa158015610197573d6000803e3d6000fd5b505050506040513d601f19601f820116820180604052508101906101bb919061087e565b6101c5919061080b565b9050600060015403610282576000341180156101e15750600083115b610220576040517f08c379a000000000000000000000000000000000000000000000000000000000815260040161021790610908565b60405180910390fd5b4760018190555034600260003373ffffffffffffffffffffffffffffffffffffffff1673ffffffffffffffffffffffffffffffffffffffff16815260200190815260200160002060008282546102769190610928565b925050819055506103be565b6000821180156102925750600081115b6102d1576040517f08c379a00000000000000000000000000000000000000000000000000000000081526004016102c8906109a8565b60405180910390fd5b60008282346102e091906109c8565b6102ea9190610a39565b90508084101561032f576040517f08c379a000000000000000000000000000000000000000000000000000000000815260040161032690610ab6565b60405180910390fd5b6000836001543461034091906109c8565b61034a9190610a39565b905080600260003373ffffffffffffffffffffffffffffffffffffffff1673ffffffffffffffffffffffffffffffffffffffff168152602001908152602001600020600082825461039b9190610928565b9250508190555080600160008282546103b49190610928565b9250508190555050505b60008054906101000a900473ffffffffffffffffffffffffffffffffffffffff1673ffffffffffffffffffffffffffffffffffffffff166323b872dd3330866040518463ffffffff1660e01b815260040161041b93929190610ad6565b6020604051808303816000875af115801561043a573d6000803e3d6000fd5b505050506040513d601f19601f8201168201806040525081019061045e9190610b45565b50505050565b60026020528060005260406000206000915090505481565b6000344761048a919061080b565b905060008060009054906101000a900473ffffffffffffffffffffffffffffffffffffffff1673ffffffffffffffffffffffffffffffffffffffff166370a08231306040518263ffffffff1660e01b81526004016104e8919061084e565b602060405180830381865afa158015610505573d6000803e3d6000fd5b505050506040513d601f19601f82011682018060405250810190610529919061087e565b905060006103e53461053b91906109c8565b90506000828261054b91906109c8565b90506000826103e88661055e91906109c8565b6105689190610928565b9050600081836105789190610a39565b905060008054906101000a900473ffffffffffffffffffffffffffffffffffffffff1673ffffffffffffffffffffffffffffffffffffffff1663a9059cbb33836040518363ffffffff1660e01b81526004016105d5929190610b72565b6020604051808303816000875af11580156105f4573d6000803e3d6000fd5b505050506040513d601f19601f820116820180604052508101906106189190610b45565b50505050505050565b60008054906101000a900473ffffffffffffffffffffffffffffffffffffffff1681565b6000819050919050565b61065881610645565b82525050565b6000602082019050610673600083018461064f565b92915050565b600080fd5b61068781610645565b811461069257600080fd5b50565b6000813590506106a48161067e565b92915050565b6000602082840312156106c0576106bf610679565b5b60006106ce84828501610695565b91505092915050565b600073ffffffffffffffffffffffffffffffffffffffff82169050919050565b6000610702826106d7565b9050919050565b610712816106f7565b811461071d57600080fd5b50565b60008135905061072f81610709565b92915050565b60006020828403121561074b5761074a610679565b5b600061075984828501610720565b91505092915050565b6000819050919050565b600061078761078261077d846106d7565b610762565b6106d7565b9050919050565b60006107998261076c565b9050919050565b60006107ab8261078e565b9050919050565b6107bb816107a0565b82525050565b60006020820190506107d660008301846107b2565b92915050565b7f4e487b7100000000000000000000000000000000000000000000000000000000600052601160045260246000fd5b600061081682610645565b915061082183610645565b9250828203905081811115610839576108386107dc565b5b92915050565b610848816106f7565b82525050565b6000602082019050610863600083018461083f565b92915050565b6000815190506108788161067e565b92915050565b60006020828403121561089457610893610679565b5b60006108a284828501610869565b91505092915050565b600082825260208201905092915050565b7f496e76616c696420696e697469616c206c697175696469747900000000000000600082015250565b60006108f26019836108ab565b91506108fd826108bc565b602082019050919050565b60006020820190508181036000830152610921816108e5565b9050919050565b600061093382610645565b915061093e83610645565b9250828201905080821115610956576109556107dc565b5b92915050565b7f52657365727665732063616e6e6f74206265207a65726f000000000000000000600082015250565b60006109926017836108ab565b915061099d8261095c565b602082019050919050565b600060208201905081810360008301526109c181610985565b9050919050565b60006109d382610645565b91506109de83610645565b92508282026109ec81610645565b91508282048414831517610a0357610a026107dc565b5b5092915050565b7f4e487b7100000000000000000000000000000000000000000000000000000000600052601260045260246000fd5b6000610a4482610645565b9150610a4f83610645565b925082610a5f57610a5e610a0a565b5b828204905092915050565b7f496e73756666696369656e7420746f6b656e20616d6f756e7400000000000000600082015250565b6000610aa06019836108ab565b9150610aab82610a6a565b602082019050919050565b60006020820190508181036000830152610acf81610a93565b9050919050565b6000606082019050610aeb600083018661083f565b610af8602083018561083f565b610b05604083018461064f565b949350505050565b60008115159050919050565b610b2281610b0d565b8114610b2d57600080fd5b50565b600081519050610b3f81610b19565b92915050565b600060208284031215610b5b57610b5a610679565b5b6000610b6984828501610b30565b91505092915050565b6000604082019050610b87600083018561083f565b610b94602083018461064f565b939250505056fea2646970667358221220abdf228ce70f54afe290f7e5f71518d1d4885231aca51ebb9e364c151acf3ebf64736f6c63430008140033",
  "linkReferences": {},
  "deployedLinkReferences": {}
}