{
  "_format": "hh-sol-artifact-1",
  "contractName": "FHEDEX",
  "sourceName": "contracts/FHEDEX.sol",
  "abi": [
    {
      "inputs": [
        {
          "internalType": "bytes",
          "name": "encryptedAmount",
          "type": "bytes"
        }
      ],
      "name": "deposit",
      "outputs": [],
      "stateMutability": "nonpayable",
      "type": "function"
    },
    {
      "inputs": [
        {
          "internalType": "address",
          "name": "user",
          "type": "address"
        }
      ],
      "name": "getBalance",
      "outputs": [
        {
          "internalType": "bytes",
          "name": "",
          "type": "bytes"
        }
      ],
      "stateMutability": "view",
      "type": "function"
    },
    {
      "inputs": [
        {
          "internalType": "bytes",
          "name": "encryptedAmount",
          "type": "bytes"
        }
      ],
      "name": "withdraw",
      "outputs": [],
      "stateMutability": "nonpayable",
      "type": "function"
    }
  ],
  "bytecode": "0x608060405234801561001057600080fd5b50610771806100206000396000f3fe608060405234801561001057600080fd5b50600436106100415760003560e01c80630968f2641461004657806398b1e06a14610062578063f8b2cb4f1461007e575b600080fd5b610060600480360381019061005b9190610291565b6100ae565b005b61007c60048036038101906100779190610291565b610100565b005b6100986004803603810190610093919061033c565b610152565b6040516100a591906103f9565b60405180910390f35b81816000803373ffffffffffffffffffffffffffffffffffffffff1673ffffffffffffffffffffffffffffffffffffffff16815260200190815260200160002091826100fb92919061066b565b505050565b81816000803373ffffffffffffffffffffffffffffffffffffffff1673ffffffffffffffffffffffffffffffffffffffff168152602001908152602001600020918261014d92919061066b565b505050565b60606000808373ffffffffffffffffffffffffffffffffffffffff1673ffffffffffffffffffffffffffffffffffffffff168152602001908152602001600020805461019d90610484565b80601f01602080910402602001604051908101604052809291908181526020018280546101c990610484565b80156102165780601f106101eb57610100808354040283529160200191610216565b820191906000526020600020905b8154815290600101906020018083116101f957829003601f168201915b50505050509050919050565b600080fd5b600080fd5b600080fd5b600080fd5b600080fd5b60008083601f8401126102515761025061022c565b5b8235905067ffffffffffffffff81111561026e5761026d610231565b5b60208301915083600182028301111561028a57610289610236565b5b9250929050565b600080602083850312156102a8576102a7610222565b5b600083013567ffffffffffffffff8111156102c6576102c5610227565b5b6102d28582860161023b565b92509250509250929050565b600073ffffffffffffffffffffffffffffffffffffffff82169050919050565b6000610309826102de565b9050919050565b610319816102fe565b811461032457600080fd5b50565b60008135905061033681610310565b92915050565b60006020828403121561035257610351610222565b5b600061036084828501610327565b91505092915050565b600081519050919050565b600082825260208201905092915050565b60005b838110156103a3578082015181840152602081019050610388565b60008484015250505050565b6000601f19601f8301169050919050565b60006103cb82610369565b6103d58185610374565b93506103e5818560208601610385565b6103ee816103af565b840191505092915050565b6000602082019050818103600083015261041381846103c0565b905092915050565b600082905092915050565b7f4e487b7100000000000000000000000000000000000000000000000000000000600052604160045260246000fd5b7f4e487b7100000000000000000000000000000000000000000000000000000000600052602260045260246000fd5b6000600282049050600182168061049c57607f821691505b6020821081036104af576104ae610455565b5b50919050565b60008190508160005260206000209050919050565b60006020601f8301049050919050565b600082821b905092915050565b6000600883026105177fffffffffffffffffffffffffffffffffffffffffffffffffffffffffffffffff826104da565b61052186836104da565b95508019841693508086168417925050509392505050565b6000819050919050565b6000819050919050565b600061056861056361055e84610539565b610543565b610539565b9050919050565b6000819050919050565b6105828361054d565b61059661058e8261056f565b8484546104e7565b825550505050565b600090565b6105ab61059e565b6105b6818484610579565b505050565b5b818110156105da576105cf6000826105a3565b6001810190506105bc565b5050565b601f82111561061f576105f0816104b5565b6105f9846104ca565b81016020851015610608578190505b61061c610614856104ca565b8301826105bb565b50505b505050565b600082821c905092915050565b600061064260001984600802610624565b1980831691505092915050565b600061065b8383610631565b9150826002028217905092915050565b610675838361041b565b67ffffffffffffffff81111561068e5761068d610426565b5b6106988254610484565b6106a38282856105de565b6000601f8311600181146106d257600084156106c0578287013590505b6106ca858261064f565b865550610732565b601f1984166106e0866104b5565b60005b82811015610708578489013582556001820191506020850194506020810190506106e3565b868310156107255784890135610721601f891682610631565b8355505b6001600288020188555050505b5050505050505056fea2646970667358221220104d318d2bd5d8bae729367ffddf255cf8bcbb3aa089b670ef563101ef9255ca64736f6c63430008140033",
  "linkReferences": {},
  "deployedLinkReferences": {}
}